:0600000000F0C2EF1FF04A
:103F810001FFFF810EF66E3F0EF76E000EF86E090F
:103F910000F5CF01F00001CEEF1FF0FFFF000E93FF
:103FA1006E010E8A6EFFFF000E8A6E3D0E026EEAF2
:103FB1000EFFFFE82EFDD7022EFBD701C08AFF3D81
:103FC1000E026EEA0EFFFFE82EFDD7022EFBD77F11
:103FD1000E0164EEEF1FF0F1EF1FF0FFFFF6EF1F90
:103FE100F0FFFF010E016ED3EF1FF0FFFF020E0184
:0F3FF10002F350016ED3EF1FF001EF00F0FFFF5E
:020000040020DA
:08000000FFFFFFFFFFFFFFFF00
:020000040030CA
:0E000000FF220D0EFF0181FF0FC00FE00F4029
:00000001FF
